:020000040800F2
:1000000020B30020B9020008A554000823150008F9
:10001000A15400085D080008935B00080000000080
:1000200000000000000000000000000021020008A5
:100030002111000800000000650200087157000847
:10004000D3020008D3020008D3020008D30200083C
:10005000D3020008D3020008D3020008D30200082C
:10006000D3020008D3020008D3020008D30200081C
:10007000D3020008D3020008D3020008D30200080C
:10008000D3020008D3020008D3020008D3020008FC
:10009000D3020008D3020008D3020008251100088B
:1000A000D3020008D3020008D3020008D3020008DC
:1000B000D3020008E5570008D3020008D302000865
:1000C000D3020008D3020008D3020008D3020008BC
:1000D000D302000871590008D3020008D3020008B7
:1000E000D3020008D3020008D3020008D30200089C
:1000F000D3020008D3020008D3020008D30200088C
:10010000D3020008D3020008D3020008D30200087B
:10011000D3020008D3020008D3020008D30200086B
:10012000D3020008D3020008D3020008D30200085B
:1001300000F002F800F065F80AA090E8000C824494
:100140008344AAF10107DA4501D100F05AF8AFF271
:10015000090EBAE80F0013F0010F18BFFB1A43F0A5
:1001600001031847583C0100783C01000A444FF055
:10017000000C10F8013B13F0070408BF10F8014B06
:100180001D1108BF10F8015B641E05D010F8016B4B
:10019000641E01F8016BF9D113F0080F1EBF10F8AF
:1001A000014BAD1C0C1B09D16D1E58BF01F801CBD2
:1001B000FAD505E014F8016B01F8016B6D1EF9D555
:1001C0009142D6D37047000000230024002500266A
:1001D000103A28BF78C1FBD8520728BF30C148BFAA
:1001E0000B607047642900F0BF80782900F0F88028
:1001F000732900F0E782002070471FB51FBD10B5BE
:1002000010BD00F0F9FA1146FFF7F7FF0AF07AFB8C
:1002100000F017FB03B4FFF7F2FF03BC05F0BBFCD3
:10022000224B19680868B0E8F00F80F30988BFF323
:100230006F8F4FF0000080F311884EF00D0E704765
:100240000000000006480068006880F3088862B675
:1002500061B6BFF34F8FBFF36F8F00DF00BF00BFEA
:1002600008ED00E0EFF30980BFF36F8F0F4B1A68C2
:1002700020E9F00F106008B54FF0600080F311889E
:10028000BFF34F8FBFF36F8F12F01AFB4FF00000D8
:1002900080F31188BDE8084019680868B0E8F00FDD
:1002A00080F30988BFF36F8F704700BF7400002090
:1002B000EFF3058070470000094880470948004770
:1002C000FEE7FEE7FEE7FEE7FEE7FEE7FEE7FEE706
:1002D000FEE7FEE704480549054A064B7047000063
:1002E000855700083101000820AD002020B3002010
:1002F00020AF002020AF0020704700000FB4044959
:1003000010B503AA029800F061FA10BC5DF814FB66
:100310003C00002070B50C460546012A05D028781F
:10032000800600D5EA69002302E0012305E05B1C9A
:10033000934202D2E05C0028F9D1A869E618C01AFD
:10034000A861286A184428622846AFF3008004E0B8
:10035000D5E9012114F8010B9047B442F8D328469F
:10036000AFF3008070BD00002DE9F0410646002487
:1003700010687529314616A510D0AFF3008000280B
:1003800002DA404213A507E031688A0701D512A5B9
:1003900002E0490704D511A5012401E0AFF3008074
:1003A00000210A2206F1240709E0B0FBF2FCB0FBB1
:1003B000F2F302FB1C00303078541846491C002828
:1003C000F3D123462A463046BDE8F04100F076B925
:1003D000000000002D0000002B00000020000000A5
:1003E00070B504460D4621461068AFF300802188A1
:1003F000090502D50F4A7A4402E00E4A7A440E32C9
:10040000002104F1240305E000F00F060009965DC9
:100410005E54491C0028F7D120780023000704D53A
:10042000702D02D009B1022311322046BDE8704080
:1004300000F044B94E3701002DE9F0410F46044663
:100440000020DFF88480F84420622046E168884775
:1004500090B3252806D0D4E901219047206A401C9A
:100460002062F2E700252046E168884720280646FA
:1004700008DB312E06D208EB060010F8200C08B17C
:100480000543F0E7A80701D525F00405A6B1A6F1BC
:100490004100192802D8203645F400653A46314615
:1004A00020462560FFF79EFE48B1012805D0FF1DBC
:1004B00027F007070837C8E703E03F1DC5E73046C8
:1004C000C9E7206ABDE8F0812637010040EA010350
:1004D00010B59B070FD1042A0DD310C808C9121FED
:1004E0009C42F8D020BA19BA884201D9012010BD27
:1004F0004FF0FF3010BD1AB1D30703D0521C07E0F4
:10050000002010BD10F8013B11F8014B1B1B07D157
:1005100010F8013B11F8014B1B1B01D1921EF1D1C8
:10052000184610BD032A40F2308010F0030C00F092
:10053000158011F8013BBCF1020F624498BF11F81D
:1005400001CB00F8013B38BF11F8013BA2F10402D6
:1005500098BF00F801CB38BF00F8013B11F003034E
:1005600000F02580083AC0F0088051F8043B083AB2
:1005700051F804CBA0E80810F5E7121D5CBF51F854
:10058000043B40F8043BAFF30080D20724BF11F8CE
:10059000013B11F801CB48BF11F8012B24BF00F833
:1005A000013B00F801CB48BF00F8012B704710B5A4
:1005B000203AC0F00B80B1E81850203AA0E818505B
:1005C000B1E81850A0E81850BFF4F5AF5FEA027C1C
:1005D00024BFB1E81850A0E8185044BF18C918C08B
:1005E000BDE810405FEA827C24BF51F8043B40F82C
:1005F000043B08BF7047D20728BF31F8023B48BF11
:1006000011F8012B28BF20F8023B48BF00F8012B4E
:10061000704702F0FF0343EA032242EA024200F07D
:1006200002B84FF000020429C0F0128010F0030C51
:1006300000F01B80CCF1040CBCF1020F18BF00F8D5
:10064000012BA8BF20F8022BA1EB0C0100F00DB884
:100650005FEAC17C24BF00F8012B00F8012B48BFE2
:1006600000F8012B70474FF0000200B51346944686
:100670009646203922BFA0E80C50A0E80C50B1F1FA
:100680002001BFF4F7AF090728BFA0E80C5048BF0E
:100690000CC05DF804EB890028BF40F8042B08BFAC
:1006A000704748BF20F8022B11F0804F18BF00F8A8
:1006B000012B704770477047704770472DE9F0472E
:1006C0000D4699469246044600F1240801688806C2
:1006D00004D5E06921F01001216000E00120A8426A
:1006E00001DD471B00E00027A1697A1902EB090030
:1006F000081AA0612078C00602D42046AFF300801B
:10070000002608E0D4E901211AF806009047206A83
:10071000401C761C20624E45F4DB2078C0060AD5CA
:100720002046AFF3008006E0D4E901213020904755
:10073000206A401C2062381EA7F10107F4DC07E0A4
:10074000D4E9012118F805009047206A401C206276
:10075000281EA5F10105F3DC2046AFF300802078C8
:10076000000602D50220BDE8F0870120FBE700006B
:1007700001694A1C02610878704700B58FB0CDE965
:1007800001310021059105497944CDE90310114655
:100790006846FFF751FE0FB000BD0000E5FFFFFF08
:1007A00010B5436913B1AFF3008001E0FFF7B2FD6C
:1007B000012010BD127800F124010A7000224A7055
:1007C0000122EDE711684FF0FF32E9E7074B70B502
:1007D0000D467B44FFF7D1FF0446284600F008F899
:1007E00010B14FF0FF3070BD204670BDF3820000A5
:1007F000007B00F080007047754600F02BF8AE4695
:1008000005006946534620F00700854618B020B51C
:10081000FFF760FDBDE820404FF000064FF00007F5
:100820004FF000084FF0000B21F00701AC46ACE898
:10083000C009ACE8C009ACE8C009ACE8C0098D4605
:10084000704710B50446AFF300802046BDE8104065
:10085000FFF7E0BC00487047C0AC002000BFFEE7D7
:1008600010B50021034A116051604721312004F086
:10087000D3FF10BD2800002000B5282000F000FAAA
:100880000246292000F0FCF942EA00222A2000F06A
:10089000F7F942EA00422B2000F0F2F942EA006246
:1008A000104600BD70B500241A480078082811D100
:1008B00008E0642005F0B0F9601CC4B2642C01DDCE
:1008C000FF2070BD012000F0A1F900F020000028F9
:1008D000EFD010E008E0642005F09EF9601CC4B27F
:1008E000642C01DDFF20ECE7012000F0C9F900F0E5
:1008F00040000028EFD0012000F0C2F9022101EAF7
:10090000A015002000F0BCF9C0F3C0000543284644
:10091000D7E700000602002010B59AB001214FF47D
:10092000F07004F023FE0121080204F0FFFD012114
:10093000084604F01BFE8020ADF8640003208DF80B
:10094000660010208DF8670019A98E4800F05CFD44
:100950004020ADF8640048208DF8670019A98A4846
:1009600000F052FD4CF23370ADF8640003208DF8B6
:10097000660018208DF8670019A9824800F044FD30
:100980004FF68070ADF8640003208DF866001820E3
:100990008DF8670019A97D4800F036FD4FF400502E
:1009A000ADF8640003208DF8660018208DF867000C
:1009B00019A9774800F028FD4FF40070ADF86400E5
:1009C00003208DF8660018208DF8670019A96E487D
:1009D00000F01AFD0621084600F0F6FC40201790B2
:1009E00000208DF860000C208DF8610001208DF84A
:1009F000620017A800F0ACFB402000F0A3FB17201A
:100A00008DF8580006208DF8590000208DF85A0006
:100A100001208DF85B0016A804F046FD0020009030
:100A2000019003200290002003900490059006900E
:100A30000220079000200890099010200A900020C2
:100A40000B900C900D900E900F904FF480501090E2
:100A50000020119012901390CDF850D0CDF854D0C2
:100A600007A800F0D9FB0121022000F0BBFB494898
:100A70000468082048490870002048808120487098
:100A8000022008710021444841718171210CC1711B
:100A9000210A01724472FF203F498872FF213E48BB
:100AA000C172017341738173C1730174417400F0A9
:100AB000F7F9642005F0B0F8FFF7DEFE04462146A2
:100AC00036A0FFF71BFC3948844202D001201AB03F
:100AD00010BD3149087800F0A3FA0021084600F063
:100AE000CDFA0021022000F0C9FA3F21082000F0D1
:100AF000C5FA3821092000F0C1FA00210A2000F0CF
:100B0000BDFA00212F2000F0B9FA2C21012000F0BD
:100B1000B5FA0F21FE2000F0B1FA80212D2000F05F
:100B2000ADFA1D48001D00F05FFA1B480A3000F0C6
:100B300069FA3121052000F0A1FA8021FF2000F0A0
:100B40009DFAFFF7AFFE0446FF2C11D004F0010020
:100B500008B117A000E018A0024604F0020008B196
:100B60000A2000E06420014615A0FFF7C7FB02E061
:100B70001EA0FFF7C3FB08484178FF2000F07EFA73
:100B80000020A4E7001401400020014000180140AB
:100B9000001C0140E8F7FF1F06020020444D3930D9
:100BA00030302049443A2523780D0A00460A009047
:100BB00046756C6C0000000048616C660000000027
:100BC000444D393030302053706565643A25644DAA
:100BD0006270732C4475706C65783A257320647567
:100BE000706C6578206D6F64650D0A00444D393076
:100BF00030302045737461626C697368204C696E93
:100C00006B204661696C6564210D0A0070B504466D
:100C100044F040010C2000F031FA0C210B2000F0D0
:100C20002DFA0A2004F0F8FF00210B2000F026FA2C
:100C30000D2000F025F802460E2000F021F842EACF
:100C4000002085B2284670BD70B505460C4645F0BB
:100C500040010C2000F012FAE1B20D2000F00EFA73
:100C6000210A0E2000F00AFA0A210B2000F006FAF1
:100C7000322004F0D1FF00210B2000F0FFF970BDFD
:100C80000146034801804FF0C840B0F800017047AA
:100C9000FE0000642DE9FE43002400235A1E19467D
:100CA0005748006811F06CFF00BFF020FFF7E8FF25
:100CB00054480088C7B2002F7ED0012F0DD952A012
:100CC000FFF71CFB0021052000F0D8F98021FE2051
:100CD00000F0D4F92046BDE8FE83F2204949891E80
:100CE00008804FF0C840B0F800010290881C0088CE
:100CF00001900322BDF8041010460AF0D9FC044606
:100D0000A4B125460FE0D5F804806E8908E04FF0C5
:100D1000C840B0F80001A8F8000008F10208B61EAB
:100D2000002EF4DC2D68002DEDD111E0BDF804108B
:100D30003EA0FFF7E3FAE846BDF8046006E04FF096
:100D4000C840B0F80001A8F80000B61E002EF6D189
:100D5000BDF8080000F43F4040B9BDF80400402849
:100D600004DBBDF80400B0F5C06F3FDDBDF808102E
:100D700034A0FFF7C3FABDF8080000F4807010B18A
:100D800034A0FFF7BBFABDF8080000F4007010B102
:100D900034A0FFF7B3FABDF8080000F4004010B12A
:100DA00034A0FFF7ABFABDF80400B0F5C06F0BDD5F
:100DB00035A0FFF7A3FA00E00CE00121002000F0CD
:100DC0005DF9052004F028FF14B120460BF082F9EC
:100DD00000246AE70221FE2000F050F981202F490B
:100DE000487008464178FF2000F048F900231A4671
:100DF00019460348006811F0FFFF20466BE700002A
:100E00003000002000010064646D39303030207201
:100E1000783A207278206572726F722C2073746F2A
:100E200070206465766963650D0A000070627566FE
:100E3000C4DAB4E6C9EAC7EBCAA7B0DC3A25640D48
:100E40000A00000072785F7374617475733A252329
:100E5000780D0A007278206669666F206572726F7D
:100E6000720D0A00727820637263206572726F726D
:100E70000D0A00007278206C656E677468206572D8
:100E8000726F720D0A0000007278206C656E6774D4
:100E90006820746F6F206269670D0A0006020020E7
:100EA00010B500201B4908600A2004F0B5FE01209F
:100EB0001949C1F89C01642004F0AEFE01211E20F6
:100EC00000F0DCF800211F2000F0D8F803210020FA
:100ED00000F0D4F800BF192004F09EFE0020FFF7B8
:100EE000CFFE00F001000028F5D10021084600F0F7
:100EF000C5F80321002000F0C1F800BF192004F05C
:100F00008BFE0020FFF7BCFE00F001000028F5D1A9
:100F100010BD00009C81224200802242F8B50446A8
:100F20000027002600235A1E19462C48006811F09D
:100F300027FE8021FF2000F0A1F8F8202849088032
:100F400025461BE06889B84216DD3846791C8FB209
:100F50006A68125C3046711CCEB20DF80020022E79
:100F60000CD19DF800009DF8011040EA01201C49B9
:100F7000891C0880002601E02D680027002DE1D1A2
:100F8000012E04D19DF800001549891C0880217AA2
:100F9000FC2000F073F82089010AFD2000F06EF8B3
:100FA0000121022000F06AF800BFFE20FFF768FE72
:100FB00000F002000028F8D00221FE2000F05EF8C8
:100FC00008484178FF2000F059F800231A461946D6
:100FD0000248006811F010FFF8BD0000300000204A
:100FE000FE0000640602002010B50446002306E05F
:100FF000E15C03F1100000F041F8581CC3B2062B6D
:10100000F6DB10BD10B50446002306E0E15C03F1F9
:10101000160000F033F8581CC3B2082BF6DB10BDE5
:1010200070B50646092E1BD2DFE806F0050C1A1A29
:1010300008101A1A15000024212511E04FF48074BD
:1010400041250DE04FF40054812509E04FF404548C
:1010500040F2011504E04FF4805440F2E11500BF66
:1010600000BF21460020FFF7EFFD29460420FFF7CF
:10107000EBFD00211F2000F001F870BD034A108035
:101080004FF0C842A2F8001170470000FE00006453
:1010900038B515480588FE20FFF7F2FD04462146C5
:1010A000FE20FFF7EBFF04F0040010B10FA0FFF7E4
:1010B00025F904F0080010B10FA0FFF71FF904F0A4
:1010C000010070B169461448006811F0FFFF0098F4
:1010D00038B14FF0805011490860BFF34F8FBFF314
:1010E0006F8F0148058038BDFE0000646F76657221
:1010F000666C6F77200D0A006F766572666C6F778D
:1011000020636F756E746572206F766572666C6FA2
:1011100077200D0A000000003400002004ED00E0FC
:101120007047000010B540200449086001E0FFF757
:10113000AFFF034800680028F9D010BD1404014037
:10114000180124420149086070470000140401405E
:10115000002123498279002A3AD00A46126803689E
:101160009A430B461A600A1D126803689A430B1DC6
:101170001A60027911440A6803681A430A60184A1F
:101180000832126803689A43154B08331A601A1D17
:10119000126803689A43124B0C331A604279102A82
:1011A0000ED11A1F126803681A430D4B08331A60D8
:1011B0001A1D126803681A43094B0C331A600DE0BC
:1011C0000749427911440A6803681A430A6005E036
:1011D000027911440A6803689A430A607047000064
:1011E0000004014051B18200A2F1C042126842F0F5
:1011F00001038200A2F1C042136009E08200A2F163
:10120000C0421268034B1A408300A3F1C0431A6026
:1012100070470000FEFF0F00D0E901121143C268C1
:101220001143026911434269114382691143C26942
:101230001143026A1143426A1143826A1143C26A2E
:101240001143026B114302689200A2F1C042116087
:10125000816808290BD101688900A1F1C0410968A2
:1012600041F0400201688900A1F1C0410A60416B70
:101270000968426B526841EA0211426B926841EA86
:101280000221426B928941EA0241426B128A41EA91
:101290000251426B127D41EA0261426B9269114335
:1012A0000268521C9200A2F1C0421160C16AB1F5FD
:1012B000804F1BD1816B0968826B526841EA021131
:1012C000826B926841EA0221826B128A41EA0251E2
:1012D000826B127D41EA0261826B9269114302685E
:1012E0009200A2F1C042C2F8041107E06FF0704210
:1012F00001688900A1F1C041C1F8042170470000D4
:1013000000B597B001214FF4F07004F02FF90121DE
:10131000080204F00BF94FF63370ADF80000182006
:101320008DF8030003208DF802006946224800F082
:101330006BF84FF68370ADF8000069461F4800F067
:1013400063F84FF23F00ADF8000069461C4800F01A
:101350005BF840F23F40ADF800006946194800F0E4
:1013600053F8002001900290032003900020049085
:1013700005900690079004200890002009900A909C
:1013800010200B9000200C900E900D900F9010905C
:101390004FF480501190002012901390149001A8E7
:1013A0001590169008A8FFF737FF01210420FFF7DA
:1013B00019FF17B000BD00000014014000180140E3
:1013C000001C01400020014030B500228B071C0F9B
:1013D0000F2303FA04F20B4B8C1053F82430934381
:1013E000084C8D1044F8253023468C1053F82430D7
:1013F0008C07240F00FA04F42343024C8D1044F8A8
:10140000253030BD080001402DE9F041024600259D
:101410000026002000230024002791F803C00CF0D0
:101420000F0591F803C00CF0100CBCF1000F03D0B5
:1014300091F802C04CEA050591F800C0BCF1000F1C
:1014400031D0146800202BE04FF0010C0CFA00F3AF
:10145000B1F800C00CEA03069E4220D183004FF091
:101460000F0C0CFA03F7BC4305FA03FC4CEA040426
:1014700091F803C0BCF1280F06D14FF0010C0CFA13
:1014800000FCC2F814C00AE091F803C0BCF1480F98
:1014900005D14FF0010C0CFA00FCC2F810C0401C42
:1014A0000828D1D31460B1F800C0BCF1FF0F34DDBF
:1014B000546800202EE000F1080C4FF0010808FAF3
:1014C0000CF3B1F800C00CEA03069E4221D1830060
:1014D0004FF00F0C0CFA03F7BC4305FA03FC4CEA7F
:1014E000040491F803C0BCF1280F05D100F1080CE9
:1014F00008FA0CF8C2F8148091F803C0BCF1480F48
:1015000007D100F1080C4FF0010808FA0CF8C2F8F6
:101510001080401C0828CED35460BDE8F0810161E2
:10152000704700BFFEE7000008B50121442004F029
:101530001DF81C20ADF8000048208DF80300694616
:101540000648FFF761FF0120ADF8000028208DF864
:10155000030069460248FFF757FF08BD0018014025
:101560000008014070B504460026174805884088E9
:1015700045431548808846F60401884216D1124832
:101580008079012812D100200F4988712A204881D2
:101590002B2088810021084603F06AFE01200A49B9
:1015A00088712B2048812A20888103E00021084689
:1015B00003F05EFE03F03CFF002602E003480480D7
:1015C000761CAE42FAD370BDF80100200008006C12
:1015D00010B50446002C66D16C498871F020088053
:1015E0004FF4A07048800846808849F24131884213
:1015F0000BD06648808846F60401884205D06348CF
:10160000808845F2103188421AD12C205F49088128
:101610002A2048812B2088810846808846F60401CC
:10162000884205D05948808845F21031884206D159
:101630004FF4A070554908804FF4F0704880A1E045
:101640005248808845F21051884210D14FF43050F2
:101650004E4908814FF4285048814FF42C5088811E
:101660004FF4F07008804FF4487048808AE0474893
:10167000808841F6631188420DD12C2043490881AE
:101680002B2048812A2088814FF4F07008804FF485
:101690004870488076E022203C490881202048811B
:1016A000212088816EE00120384988714FF4A070B4
:1016B0000880F02048800846808849F241318842FD
:1016C00005D03248808845F21031884207D12C205D
:1016D0002E4908812A2048812B2088813FE02B4811
:1016E000808846F60401884207D12C2027490881CA
:1016F0002B2048812A20888131E02448808845F2C7
:101700001051884210D14FF43050204908814FF4D5
:10171000285048814FF42C5088814FF4487008803D
:101720004FF4F07048801AE01848808841F6631141
:1017300088420DD12C20154908812A2048812B2070
:1017400088814FF4487008804FF4F070488006E0BC
:1017500022200E49088121204881202088810B48C1
:10176000808846F60401884205D00848808845F202
:101770001031884206D14FF4F070044908804FF4CC
:10178000A0704880002003F0FDFB10BDF801002090
:1017900000B59FB00121080203F0C8FE01214FF4FB
:1017A000B47003F0E3FE0120ADF8780010208DF84E
:1017B0007B0003208DF87A001EA9FE48FFF724FE67
:1017C0004CF23370ADF8780018208DF87B000320C0
:1017D0008DF87A001EA9F848FFF716FE4FF68070C4
:1017E000ADF8780018208DF87B0003208DF87A0082
:1017F0001EA9F248FFF708FE41F20100ADF878009B
:1018000018208DF87B0003208DF87A001EA9EC4883
:10181000FFF7FAFD01200890002009900F200A90A0
:1018200000200B900C900D900E90019002900320E0
:1018300003900020049005900690079006200F90DA
:1018400000201090119010201290002013901590FD
:101850001490169017904FF4805018900020199013
:101860004FF480401A9000201B9008A81C9001A8FB
:101870001D900FA8FFF7D0FC01210620FFF7B2FC56
:10188000322004F0C9F9002003F046FBCD498880DE
:1018900008468088FF280ADB084680884FF6FF71DB
:1018A000884204D0C7488088B0F5134F7ED1D3203A
:1018B00003F0B8FD03F026FBC249888003F022FB49
:1018C000C049888003F01EFBBE4988800846808896
:1018D0004FF6FF7101EA0020BA49888003F012FB3D
:1018E000B84989880843B74988800846808849F202
:1018F000413188425AD0BF2003F094FD03F002FB2F
:10190000B049888003F0FEFAAE49888003F0FAFA05
:10191000AC49888003F0F6FAAA4988800846808896
:101920004FF6FF7101EA0020A649888003F0EAFA29
:10193000A44989880843A34988800846808846F6D8
:10194000040188427AD0D42003F06CFD03F0DAFA67
:101950009C49888003F0D6FA9A49888003F0D2FA2D
:1019600098498880084680884FF6FF7101EA002078
:101970009449888003F0C6FA9249898808439149BE
:1019800088800846808845F21031884256D04FF44E
:101990005A4003F047FD03F0B5FA8A4988804FF4B6
:1019A0005B4003F03FFD03F0ADFA00E046E08549FF
:1019B0008880084680884FF6FF7101EA002081493F
:1019C00088804FF45C4003F02DFD03F09BFA7D49C5
:1019D000898808437B49888008468088B0F5004F95
:1019E00002D145F2105088807648808845F2105127
:1019F000884223D0A12003F015FD03F083FA71493A
:101A0000888003F07FFA6F498880084680884FF607
:101A1000FF7101EA00206B49888003F073FA69497D
:101A200089880843674988800846808845F2617143
:101A3000884203D141F663106249888061488188F9
:101A400061A0FEF75BFC5F48808849F24131884223
:101A50007ED1CF2003F0E6FC002003F0DDFCC120A6
:101A600003F0DAFC302003F0D7FCED2003F0DAFCC1
:101A7000642003F0D1FC032003F0CEFC122003F01D
:101A8000CBFC812003F0C8FCE82003F0CBFC8520D0
:101A900003F0C2FC102003F0BFFC7A2003F0BCFC72
:101AA000CB2003F0BFFC392003F0B6FC2C2003F060
:101AB000B3FC002003F0B0FC342003F0ADFC0220A6
:101AC00003F0AAFCF72003F0ADFC202003F0A4FCF7
:101AD000EA2003F0A7FC002003F09EFC002003F0A6
:101AE0009BFCC02003F09EFC1B2003F095FCC12052
:101AF00003F098FC012003F08FFCC52003F092FC5A
:101B0000302003F089FC302003F086FCC72003F06E
:101B100089FCB72003F080FC362003F083FC4820CA
:101B200003F07AFC3A2003F07DFC552003F074FCAE
:101B3000B12003F077FC002003F06EFC1A2003F0C4
:101B40006BFCB62003F06EFC0A2003F065FC00E09D
:101B5000AAE0A22003F060FCF22003F063FC002066
:101B600003F05AFC262003F05DFC012003F054FC36
:101B7000E02003F057FC0F2003F04EFC2A2003F076
:101B80004BFC282003F048FC082003F045FC0E2005
:101B900003F042FC082003F03FFC542003F03CFC1F
:101BA000A92003F039FC432003F036FC0A2003F09F
:101BB00033FC11E0000C014000140140001801400A
:101BC00000200140F8010020204C43442049443AC1
:101BD00025780D0A000000000F2003F01DFC0020F6
:101BE00003F01AFC002003F017FC002003F014FCA3
:101BF000002003F011FCE12003F014FC002003F0AE
:101C00000BFC152003F008FC172003F005FC07204F
:101C100003F002FC112003F0FFFB062003F0FCFBA5
:101C20002B2003F0F9FB562003F0F6FB3C2003F0D9
:101C3000F3FB052003F0F0FB102003F0EDFB0F2079
:101C400003F0EAFB3F2003F0E7FB3F2003F0E4FB57
:101C50000F2003F0E1FB2B2003F0E4FB002003F056
:101C6000DBFB002003F0D8FB012003F0D5FB3F2075
:101C700003F0D2FB2A2003F0D5FB002003F0CCFBBD
:101C8000002003F0C9FB002003F0C6FBEF2003F0A7
:101C9000C3FB112003F0C6FB782003F0BDFF292011
:101CA00003F0C0FB03F01DB9FE48808846F604012E
:101CB00088427CD1112003F0B5FB142003F0ACFF67
:101CC000D02003F0AFFB072003F0A6FB422003F077
:101CD000A3FB1D2003F0A0FBD12003F0A3FB0020F9
:101CE00003F09AFB1A2003F097FB092003F094FB02
:101CF000D22003F097FB012003F08EFB222003F09B
:101D00008BFBC02003F08EFB102003F085FB3B20F3
:101D100003F082FB002003F07FFB022003F07CFB3A
:101D2000112003F079FBC52003F07CFB032003F0B6
:101D300073FBC82003F076FB002003F06DFB252029
:101D400003F06AFB212003F067FB052003F064FB2E
:101D5000002003F061FB0A2003F05EFB652003F026
:101D60005BFB252003F058FB772003F055FB502048
:101D700003F052FB0F2003F04FFB002003F04CFB5D
:101D8000F82003F04FFB012003F046FBFE2003F098
:101D900049FB002003F040FB022003F03DFB202024
:101DA00003F040FB362003F03DFB082000E02CE070
:101DB00003F032FB3A2003F035FB552003F02CFBF7
:101DC0002B2003F02FFB002003F026FB002003F064
:101DD00023FB012003F020FB3F2003F01DFB2A2002
:101DE00003F020FB002003F017FB002003F014FB9E
:101DF000012003F011FBDF2003F00EFB782003F03D
:101E00000BFF292003F00EFB4CE7A648808845F223
:101E10001031884240F07C87ED2003F003FB012065
:101E200003F0FAFAFE2003F0F7FAEE2003F0FAFAD4
:101E3000DE2003F0F1FA212003F0EEFAF12003F0A6
:101E4000F1FA012003F0E8FADF2003F0EBFA1020AA
:101E500003F0E2FAC42003F0E5FA8F2003F0DCFA85
:101E6000C62003F0DFFA002003F0D6FAE22003F0E8
:101E7000D3FAE22003F0D0FAE22003F0CDFABF203B
:101E800003F0D0FAAA2003F0C7FAB02003F0CAFA90
:101E90000D2003F0C1FA002003F0BEFA0D2003F07C
:101EA000BBFA002003F0B8FA112003F0B5FA0020C5
:101EB00003F0B2FA192003F0AFFA002003F0ACFAF5
:101EC000212003F0A9FA002003F0A6FA2D2003F048
:101ED000A3FA002003F0A0FA3D2003F09DFA0020B1
:101EE00003F09AFA5D2003F097FA002003F094FAC9
:101EF0005D2003F091FA002003F08EFAB12003F088
:101F000091FA802003F088FA002003F085FA8B20F4
:101F100003F082FA002003F07FFA962003F07CFAA7
:101F2000002003F079FAB22003F07CFA002003F0DD
:101F300073FA002003F070FA022003F06DFA00201B
:101F400003F06AFA032003F067FA002003F064FA52
:101F5000B32003F067FA002003F05EFA002003F0DC
:101F60005BFA002003F058FA002003F055FA002035
:101F700003F052FA002003F04FFA002003F04CFA6D
:101F8000002003F049FA002003F046FA002003F095
:101F900043FA002003F040FA002003F03DFA00204D
:101FA00003F03AFA002003F037FA002003F034FA85
:101FB000002003F031FA002003F02EFA002003F095
:101FC0002BFA002003F028FA002003F025FA002065
:101FD00003F022FA002003F01FFA002003F01CFA9D
:101FE000002003F019FAB42003F01CFA8B2003F050
:101FF00013FA002003F010FA962003F00DFA0020E7
:1020000003F00AFAA12003F007FA002003F004FA13
:10201000B52003F007FA022003F0FEF9002003F0D8
:10202000FBF9032003F0F8F9002003F0F5F9042090
:1020300003F0F2F9002003F0EFF9B62003F0F2F913
:10204000002003F0E9F9002003F0E6F9B72003F0DF
:10205000E9F9002003F0E0F9002003F0DDF93F206A
:1020600003F0DAF9002003F0D7F95E2003F0D4F989
:10207000002003F0D1F9642003F0CEF9002003F032
:10208000CBF98C2003F0C8F9002003F0C5F9AC208F
:1020900003F0C2F9002003F0BFF9DC2003F0BCF923
:1020A000002001E0F801002003F0B6F9702003F0F1
:1020B000B3F9002003F0B0F9902003F0ADF900204F
:1020C00003F0AAF9EB2003F0A7F9002003F0A4F92C
:1020D000DC2003F0A1F9002003F09EF9B82003F002
:1020E000A1F9002003F098F9002003F095F90020F1
:1020F00003F092F9002003F08FF9002003F08CF92F
:10210000002003F089F9002003F086F9002003F095
:1021100083F9BA2003F086F9242003F07DF900202A
:1021200003F07AF9002003F077F9002003F074F946
:10213000C12003F077F9202003F06EF9002003F0AE
:102140006BF9542003F068F9002003F065F9FF20D3
:1021500003F062F9002003F05FF9C22003F062F996
:102160000A2003F059F9002003F056F9042003F087
:1021700053F9002003F050F9C32003F053F93C2039
:1021800003F04AF9002003F047F93A2003F044F93C
:10219000002003F041F9392003F03EF9002003F05C
:1021A0003BF9372003F038F9002003F035F93C20E3
:1021B00003F032F9002003F02FF9362003F02CF958
:1021C000002003F029F9322003F026F9002003F063
:1021D00023F92F2003F020F9002003F01DF92C2013
:1021E00003F01AF9002003F017F9292003F014F97D
:1021F000002003F011F9262003F00EF9002003F06F
:102200000BF9242003F008F9002003F005F924203D
:1022100003F002F9002003F0FFF8232003F0FCF89C
:10222000002003F0F9F83C2003F0F6F8002003F05A
:10223000F3F8362003F0F0F8002003F0EDF8322038
:1022400003F0EAF8002003F0E7F82F2003F0E4F8A9
:10225000002003F0E1F82C2003F0DEF8002003F06A
:10226000DBF8292003F0D8F8002003F0D5F8262069
:1022700003F0D2F8002003F0CFF8242003F0CCF8CC
:10228000002003F0C9F8242003F0C6F8002003F072
:10229000C3F8232003F0C0F8002003F0BDF8C420E9
:1022A00003F0C0F8622003F0B7F8002003F0B4F8A0
:1022B000052003F0B1F8002003F0AEF8842003F00D
:1022C000ABF8002003F0A8F8F02003F0A5F80020F8
:1022D00003F0A2F8182003F09FF8002003F09CF808
:1022E000A42003F099F8002003F096F8182003F0DA
:1022F00093F8002003F090F8502003F08DF80020B0
:1023000003F08AF80C2003F087F8002003F084F82B
:10231000172003F081F8002003F07EF8952003F0E9
:102320007BF8002003F078F8F32003F075F8002024
:1023300003F072F8E62003F06FF8002003F06CF869
:10234000C52003F06FF8322003F066F8002003F098
:1023500063F8442003F060F8002003F05DF8652086
:1023600003F05AF8002003F057F8762003F054F8F1
:10237000002003F051F8882003F04EF8002003F00D
:102380004BF8C62003F04EF8202003F045F800205B
:1023900003F042F8172003F03FF8002003F03CF868
:1023A000012003F039F8002003F036F8C72003F0CD
:1023B00039F8002003F030F8002003F02DF8002059
:1023C00003F02AF8002003F027F8C82003F02AF8C9
:1023D000002003F021F8002003F01EF8002003F095
:1023E0001BF8002003F018F8C92003F01BF80020A8
:1023F00003F012F8002003F00FF8002003F00CF8AF
:10240000002003F009F8002003F006F8002003F094
:1024100003F8002003F000F8002002F0FDFF002088
:1024200002F0FAFF002002F0F7FF002002F0F4FFB4
:10243000002002F0F1FF002002F0EEFF002002F089
:10244000EBFF002002F0E8FF002002F0E5FFE020B3
:1024500002F0E8FF162002F0DFFF002002F0DCFFB0
:102460001C2002F0D9FF002002F0D6FF212002F04C
:10247000D3FF002002F0D0FF362002F0CDFF002075
:1024800002F0CAFF462002F0C7FF002002F0C4FF9E
:10249000522002F0C1FF002002F0BEFF642002F0D3
:1024A000BBFF002002F0B8FF7A2002F0B5FF002049
:1024B00002F0B2FF8B2002F0AFFF002002F0ACFF71
:1024C000992002F0A9FF002002F0A6FFA82002F048
:1024D000A3FF002002F0A0FFB92002F09DFF002022
:1024E00002F09AFFC42002F097FF002002F094FF50
:1024F000CA2002F091FF002002F08EFFD22002F0ED
:102500008BFF002002F088FFD92002F085FF002019
:1025100002F082FFE02002F07FFF002002F07CFF4B
:10252000F32002F079FF002002F076FFE12002F0B4
:1025300079FF162002F070FF002002F06DFF1C20D2
:1025400002F06AFF002002F067FF222002F064FF21
:10255000002002F061FF362002F05EFF002002F052
:102560005BFF452002F058FF002002F055FF52208B
:1025700002F052FF002002F04FFF642002F04CFFF7
:10258000002002F049FF7A2002F046FF002002F00E
:1025900043FF8B2002F040FF002002F03DFF992016
:1025A00002F03AFF002002F037FFA82002F034FFCB
:1025B000002002F031FFB92002F02EFF002002F0CF
:1025C0002BFFC42002F028FF002002F025FFCA20C4
:1025D00002F022FF002002F01FFFD22002F01CFFB9
:1025E000002002F019FFD82002F016FF002002F0B0
:1025F00013FFE02002F010FF002002F00DFFF32097
:1026000002F00AFF002002F007FFE22002F00AFFBA
:10261000052002F001FF002002F0FEFE0B2002F078
:10262000FBFE002002F0F8FE1B2002F0F5FE002069
:1026300002F0F2FE342002F0EFFE002002F0ECFE89
:10264000442002F0E9FE002002F0E6FE4F2002F0F6
:10265000E3FE002002F0E0FE612002F0DDFE00203B
:1026600002F0DAFE792002F0D7FE002002F0D4FE5C
:10267000882002F0D1FE002002F0CEFE972002F06A
:10268000CBFE002002F0C8FEA62002F0C5FE00200E
:1026900002F0C2FEB72002F0BFFE002002F0BCFE36
:1026A000C22002F0B9FE002002F0B6FEC72002F000
:1026B000B3FE002002F0B0FED12002F0ADFE0020FB
:1026C00002F0AAFED62002F0A7FE002002F0A4FE2F
:1026D000DD2002F0A1FE002002F09EFEF32002F0B9
:1026E0009BFE002002F098FEE32002F09BFE0520F6
:1026F00002F092FE002002F08FFE0A2002F08CFE13
:10270000002002F089FE1C2002F086FE002002F06C
:1027100083FE332002F080FE002002F07DFE442084
:1027200002F07AFE002002F077FE502002F074FEE4
:10273000002002F071FE622002F06EFE002002F026
:102740006BFE782002F068FE002002F065FE882013
:1027500002F062FE002002F05FFE972002F05CFEB5
:10276000002002F059FEA62002F056FE002002F0E2
:1027700053FEB72002F050FE002002F04DFEC220B2
:1027800002F04AFE002002F047FEC72002F044FE9D
:10279000002002F041FED12002F03EFE002002F0B7
:1027A0003BFED52002F038FE002002F035FEDD2091
:1027B00002F032FE002002F02FFEF32002F02CFE89
:1027C000002002F029FEE42002F02CFE012002F09D
:1027D00023FE002002F020FE012002F01DFE00205A
:1027E00002F01AFE022002F017FE002002F014FE92
:1027F0002A2002F011FE002002F00EFE3C2002F022
:102800000BFE002002F008FE4B2002F005FE002027
:1028100002F002FE5D2002F0FFFD002002F0FCFD50
:10282000742002F0F9FD002002F0F6FD842002F091
:10283000F3FD002002F0F0FD932002F0EDFD0020FA
:1028400002F0EAFDA22002F0E7FD002002F0E4FD24
:10285000B32002F0E1FD002002F0DEFDBE2002F018
:10286000DBFD002002F0D8FDC42002F0D5FD0020E1
:1028700002F0D2FDCD2002F0CFFD002002F0CCFD11
:10288000D32002F0C9FD002002F0C6FDDD2002F0D9
:10289000C3FD002002F0C0FDF32002F0BDFD0020CA
:1028A00002F0BAFDE52002F0BDFD002002F0B4FD0B
:1028B000002002F0B1FD002002F0AEFD002002F089
:1028C000ABFD022002F0A8FD002002F0A5FD2920AA
:1028D00002F0A2FD002002F09FFD3C2002F09CFDD2
:1028E000002002F099FD4B2002F096FD002002F03E
:1028F00093FD5D2002F090FD002002F08DFD74201C
:1029000002F08AFD002002F087FD842002F084FDA1
:10291000002002F081FD932002F07EFD002002F0F5
:102920007BFDA22002F078FD002002F075FDB320AF
:1029300002F072FD002002F06FFDBE2002F06CFD7F
:10294000002002F069FDC42002F066FD002002F0C4
:1029500063FDCD2002F060FD002002F05DFDD3207C
:1029600002F05AFD002002F057FDDC2002F054FD79
:10297000002002F051FDF32002F04EFD002002F095
:102980004BFDE62002F04EFD112002F045FD002037
:1029900002F042FD342002F03FFD002002F03CFD39
:1029A000562002F039FD002002F036FD762002F0BC
:1029B00033FD002002F030FD772002F02DFD0020D5
:1029C00002F02AFD662002F027FD002002F024FD1F
:1029D000882002F021FD002002F01EFD992002F067
:1029E0001BFD002002F018FDBB2002F015FD0020A9
:1029F00002F012FD992002F00FFD002002F00CFD04
:102A0000662002F009FD002002F006FD552002F0CC
:102A100003FD002002F000FD552002F0FDFC002027
:102A200002F0FAFC452002F0F7FC002002F0F4FC72
:102A3000432002F0F1FC002002F0EEFC442002F002
:102A4000EBFC002002F0E8FCE72002F0EBFC322077
:102A500002F0E2FC002002F0DFFC552002F0DCFC7A
:102A6000002002F0D9FC762002F0D6FC002002F013
:102A7000D3FC662002F0D0FC002002F0CDFC6720E1
:102A800002F0CAFC002002F0C7FC672002F0C4FC80
:102A9000002002F0C1FC872002F0BEFC002002F002
:102AA000BBFC992002F0B8FC002002F0B5FCBB2072
:102AB00002F0B2FC002002F0AFFC992002F0ACFC66
:102AC000002002F0A9FC772002F0A6FC002002F012
:102AD000A3FC442002F0A0FC002002F09DFC562044
:102AE00002F09AFC002002F097FC232002F094FCF4
:102AF000002002F091FC332002F08EFC002002F056
:102B00008BFC452002F088FC002002F085FCE820C8
:102B100002F088FC002002F07FFC002002F07CFC28
:102B2000992002F079FC002002F076FC872002F068
:102B300073FC002002F070FC882002F06DFC002085
:102B400002F06AFC772002F067FC002002F064FCCF
:102B5000662002F061FC002002F05EFC882002F09A
:102B60005BFC002002F058FCAA2002F055FC00207B
:102B700002F052FCBB2002F04FFC002002F04CFCA3
:102B8000992002F049FC002002F046FC662002F089
:102B900043FC002002F040FC552002F03DFC0020E8
:102BA00002F03AFC552002F037FC002002F034FC21
:102BB000442002F031FC002002F02EFC442002F000
:102BC0002BFC002002F028FC552002F025FC002000
:102BD00002F022FCE92002F025FCAA2002F01CFCF5
:102BE000002002F019FC002002F016FC002002F088
:102BF00013FC002002F016FCAA2002F00DFCCF20EE
:102C000002F010FC002002F007FC002002F004FC9F
:102C1000002002F001FC002002F0FEFB002002F088
:102C2000FBFB002002F0F8FB002002F0F5FB002087
:102C300002F0F2FB002002F0EFFB002002F0ECFBC0
:102C4000002002F0E9FB002002F0E6FB002002F089
:102C5000E3FB002002F0E0FB002002F0DDFB00209F
:102C600002F0DAFB002002F0D7FBF02002F0DAFBE2
:102C7000002002F0D1FB502002F0CEFB002002F039
:102C8000CBFB002002F0C8FB002002F0C5FBF320C4
:102C900002F0C8FB002002F0BFFBF92002F0C2FBEB
:102CA000062002F0B9FB102002F0B6FB292002F04A
:102CB000B3FB002002F0B0FB3A2002F0B3FB55203A
:102CC00002F0AAFB112002F0ADFB642002F0A4FF89
:102CD000292002F0A7FB352002F0A4FB002002F01F
:102CE0009BFB512002F09EFBFF2002F095FB53203E
:102CF00002F098FB2C2002F08FFB552002F092FB93
:102D0000822002F089FB2C2002F08CFB02F0E9B853
:102D1000FE48808845F2105188427DD155214FF4FC
:102D2000704002F08FFBAA214FF2010002F08AFBF3
:102D300052214FF2020002F085FB08214FF20300FE
:102D400002F080FB01214FF2040002F07BFB0D2119
:102D50004FF4304002F076FB0D214BF2010002F0FF
:102D600071FB0D214BF2020002F06CFB34214FF499
:102D7000364002F067FB34214BF2016002F062FB47
:102D800034214BF2026002F05DFB0D214FF4314023
:102D900002F058FB0D214BF2011002F053FB0D2104
:102DA0004BF2021002F04EFB34214FF4374002F098
:102DB00049FB34214BF2017002F044FB34214BF209
:102DC000027002F03FFB00214FF4324002F03AFB68
:102DD00000214BF2012002F035FB00214BF20220D2
:102DE00002F030FB24214FF4384002F02BFB242169
:102DF0004BF6010002F026FB24214BF6020002F004
:102E000021FB01214FF43F4002F01CFB0F214FF446
:102E1000334002F017FB00E0FDE30F214BF20130DD
:102E200002F010FB0F214BF2023002F00BFB3421B9
:102E30004FF4394002F006FB34214BF6011002F04A
:102E400001FB34214BF6021002F0FCFA08214FF48A
:102E5000354002F0F7FA08214BF2015002F0F2FA85
:102E600008214BF2025002F0EDFA03214FF44240E8
:102E700002F0E8FA24214FF43A4002F0E3FA242168
:102E80004BF6012002F0DEFA24214BF6022002F07C
:102E9000D9FA00214FF43C4002F0D4FA78214BF6E5
:102EA000014002F0CFFA00214BF6024002F0CAFACC
:102EB00000214FF43D4002F0C5FA78214BF6015055
:102EC00002F0C0FA00214BF6025002F0BBFA0021DA
:102ED0004FF43E4002F0B6FA64214BF6016002F076
:102EE000B1FA00214FF4514002F0ACFA33214DF217
:102EF000011002F0A7FA00214DF2021002F0A2FA2E
:102F000034214DF2031002F09DFA00214DF204101D
:102F100002F098FA3A214DF2051002F093FA0021DE
:102F20004DF2061002F08EFA4A214DF2071002F01F
:102F300089FA00214DF2081002F084FA5C214DF26A
:102F4000091002F07FFA00214DF20A1002F07AFA1D
:102F500081214DF20B1002F075FA00214DF20C1098
:102F600002F070FAA6214DF20D1002F06BFA00216A
:102F70004DF20E1002F066FAE5214DF20F1002F04C
:102F800061FA01214DF2101002F05CFA13214DF2AA
:102F9000111002F057FA01214DF2121002F052FA0C
:102FA00054214DF2131002F04DFA01214DF214108C
:102FB00002F048FA82214DF2151002F043FA012185
:102FC0004DF2161002F03EFACA214DF2171002F02F
:102FD00039FA02214DF2181002F034FA00214DF2B4
:102FE000191002F02FFA02214DF21A1002F02AFAFB
:102FF00001214DF21B1002F025FA02214DF21C10A6
:1030000002F020FA34214DF21D1002F01BFA0221C9
:103010004DF21E1002F016FA67214DF21F1002F059
:1030200011FA02214DF2201002F00CFA84214DF227
:10303000211002F007FA02214DF2221002F002FAEA
:10304000A4214DF2231002F0FDF902214DF22410CB
:1030500002F0F8F9B7214DF2251002F0F3F9022140
:103060004DF2261002F0EEF9CF214DF2271002F0BA
:10307000E9F902214DF2281002F0E4F9DE214DF2C7
:10308000291002F0DFF902214DF22A1002F0DAF9DC
:10309000F2214DF22B1002F0D5F902214DF22C1045
:1030A00002F0D0F9FE214DF22D1002F0CBF90321F0
:1030B0004DF22E1002F0C6F910214DF22F1002F041
:1030C000C1F903214DF2301002F0BCF933214DF269
:1030D000311002F0B7F903214DF2321002F0B2F9CB
:1030E0006D214DF2331002F0ADF900214FF4524042
:1030F00002F0A8F933214DF2012002F0A3F90021DA
:103100004DF2022002F09EF9342101E0F801002086
:103110004DF2032002F096F900214DF2042002F056
:1031200091F93A214DF2052002F08CF900214DF27F
:10313000062002F087F94A214DF2072002F082F9B9
:1031400000214DF2082002F07DF95C214DF20920AA
:1031500002F078F900214DF20A2002F073F9812182
:103160004DF20B2002F06EF900214DF20C2002F01E
:1031700069F9A6214DF20D2002F064F900214DF20B
:103180000E2002F05FF9E5214DF20F2002F05AF90E
:1031900001214DF2102002F055F913214DF21120BA
:1031A00002F050F901214DF2122002F04BF95421A6
:1031B0004DF2132002F046F901214DF2142002F0E5
:1031C00041F982214DF2152002F03CF901214DF226
:1031D000162002F037F9CA214DF2172002F032F919
:1031E00002214DF2182002F02DF900214DF2192094
:1031F00002F028F902214DF21A2002F023F90121F0
:103200004DF21B2002F01EF902214DF21C2002F0AB
:1032100019F934214DF21D2002F014F902214DF26A
:103220001E2002F00FF967214DF21F2002F00AF96B
:1032300002214DF2202002F005F984214DF22120D7
:1032400002F000F902214DF2222002F0FBF8A42145
:103250004DF2232002F0F6F802214DF2242002F074
:10326000F1F8B7214DF2252002F0ECF802214DF2E1
:10327000262002F0E7F8CF214DF2272002F0E2F8F5
:1032800002214DF2282002F0DDF8DE214DF2292046
:1032900002F0D8F802214DF22A2002F0D3F8F221F0
:1032A0004DF22B2002F0CEF802214DF22C2002F03C
:1032B000C9F8FE214DF22D2002F0C4F803214DF291
:1032C0002E2002F0BFF810214DF22F2002F0BAF8A4
:1032D00003214DF2302002F0B5F833214DF23120B8
:1032E00002F0B0F803214DF2322002F0ABF86D216C
:1032F0004DF2332002F0A6F800214FF4534002F0C3
:10330000A1F833214DF2013002F09CF800214DF27A
:10331000023002F097F834214DF2033002F092F8B7
:1033200000214DF2043002F08DF83A214DF20530C3
:1033300002F088F800214DF2063002F083F84A21AD
:103340004DF2073002F07EF800214DF2083002F015
:1033500079F85C214DF2093002F074F800214DF249
:103360000A3002F06FF881214DF20B3002F06AF85A
:1033700000214DF20C3002F065F8A6214DF20D301F
:1033800002F060F800214DF20E3002F05BF8E5210A
:103390004DF20F3002F056F801214DF2103002F0DC
:1033A00051F813214DF2113002F04CF801214DF289
:1033B000123002F047F854214DF2133002F042F877
:1033C00001214DF2143002F03DF882214DF215300A
:1033D00002F038F801214DF2163002F033F8CA211C
:1033E0004DF2173002F02EF802214DF2183002F0A3
:1033F00029F800214DF2193002F024F802214DF293
:103400001A3002F01FF801214DF21B3002F01AF8B9
:1034100002214DF21C3002F015F834214DF21D301E
:1034200002F010F802214DF21E3002F00BF8672175
:103430004DF21F3002F006F802214DF2203002F06A
:1034400001F884214DF2213001F0FCFF02214DF200
:10345000223001F0F7FFA4214DF2233001F0F2FFFA
:1034600002214DF2243001F0EDFFB7214DF225305D
:1034700001F0E8FF02214DF2263001F0E3FFCF21F9
:103480004DF2273001F0DEFF02214DF2283001F02D
:10349000D9FFDE214DF2293001F0D4FF02214DF297
:1034A0002A3001F0CFFFF2214DF22B3001F0CAFF9C
:1034B00002214DF22C3001F0C5FFFE214DF22D30DE
:1034C00001F0C0FF03214DF22E3001F0BBFF1021AF
:1034D0004DF22F3001F0B6FF03214DF2303001F0F4
:1034E000B1FF33214DF2313001F0ACFF03214DF239
:1034F000323001F0A7FF6D214DF2333001F0A2FF11
:1035000000214FF4544001F09DFF33214DF2014062
:1035100001F098FF00214DF2024001F093FF3421A9
:103520004DF2034001F08EFF00214DF2044001F006
:1035300089FF3A214DF2054001F084FF00214DF250
:10354000064001F07FFF4A214DF2074001F07AFF6B
:1035500000214DF2084001F075FF5C214DF2094059
:1035600001F070FF00214DF20A4001F06BFF812154
:103570004DF20B4001F066FF00214DF20C4001F0CE
:1035800061FFA6214DF20D4001F05CFF00214DF2DC
:103590000E4001F057FFE5214DF20F4001F052FFC0
:1035A00001214DF2104001F04DFF13214DF2114069
:1035B00001F048FF01214DF2124001F043FF542178
:1035C0004DF2134001F03EFF01214DF2144001F095
:1035D00039FF82214DF2154001F034FF01214DF2F7
:1035E000164001F02FFFCA214DF2174001F02AFFCB
:1035F00002214DF2184001F025FF00214DF2194043
:1036000001F020FF02214DF21A4001F01BFF0121C1
:103610004DF21B4000E006E301F014FF02214DF2E1
:103620001C4001F00FFF34214DF21D4001F00AFF54
:1036300002214DF21E4001F005FF67214DF21F40AF
:1036400001F000FF02214DF2204001F0FBFE842139
:103650004DF2214001F0F6FE02214DF2224001F030
:10366000F1FEA4214DF2234001F0ECFE02214DF2C7
:10367000244001F0E7FEB7214DF2254001F0E2FEC3
:1036800002214DF2264001F0DDFECF214DF2274010
:1036900001F0D8FE02214DF2284001F0D3FEDE21D8
:1036A0004DF2294001F0CEFE02214DF22A4001F0F8
:1036B000C9FEF2214DF22B4001F0C4FE02214DF271
:1036C0002C4001F0BFFEFE214DF22D4001F0BAFE6C
:1036D00003214DF22E4001F0B5FE10214DF22F4096
:1036E00001F0B0FE03214DF2304001F0ABFE33217A
:1036F0004DF2314001F0A6FE03214DF2324001F0BF
:10370000A1FE6D214DF2334001F09CFE00214FF4EB
:10371000554001F097FE33214DF2015001F092FE29
:1037200000214DF2025001F08DFE34214DF2035084
:1037300001F088FE00214DF2045001F083FE3A2191
:103740004DF2055001F07EFE00214DF2065001F0D1
:1037500079FE4A214DF2075001F074FE00214DF22E
:10376000085001F06FFE5C214DF2095001F06AFE35
:1037700000214DF20A5001F065FE81214DF20B50FF
:1037800001F060FE00214DF20C5001F05BFEA6211D
:103790004DF20D5001F056FE00214DF20E5001F099
:1037A00051FEE5214DF20F5001F04CFE01214DF28A
:1037B000105001F047FE13214DF2115001F042FE6E
:1037C00001214DF2125001F03DFE54214DF21350F3
:1037D00001F038FE01214DF2145001F033FE822138
:1037E0004DF2155001F02EFE01214DF2165001F060
:1037F00029FECA214DF2175001F024FE02214DF29C
:10380000185001F01FFE00214DF2195001F01AFE70
:1038100002214DF21A5001F015FE01214DF21B500C
:1038200001F010FE02214DF21C5001F00BFE34217C
:103830004DF21D5001F006FE02214DF21E5001F026
:1038400001FE67214DF21F5001F0FCFD02214DF2F7
:10385000205001F0F7FD84214DF2215001F0F2FDDE
:1038600002214DF2225001F0EDFDA4214DF2235032
:1038700001F0E8FD02214DF2245001F0E3FDB721F3
:103880004DF2255001F0DEFD02214DF2265001F0EF
:10389000D9FDCF214DF2275001F0D4FD02214DF288
:1038A000285001F0CFFDDE214DF2295001F0CAFD74
:1038B00002214DF22A5001F0C5FDF2214DF22B50AC
:1038C00001F0C0FD02214DF22C5001F0BBFDFE21A4
:1038D0004DF22D5001F0B6FD03214DF22E5001F0B6
:1038E000B1FD10214DF22F5001F0ACFD03214DF23E
:1038F000305001F0A7FD33214DF2315001F0A2FD0F
:1039000003214DF2325001F09DFD6D214DF23350F7
:1039100001F098FD00214FF4564001F093FD332152
:103920004DF2016001F08EFD00214DF2026001F0C8
:1039300089FD34214DF2036001F084FD00214DF238
:10394000046001F07FFD3A214DF2056001F07AFD3F
:1039500000214DF2066001F075FD4A214DF207602D
:1039600001F070FD00214DF2086001F06BFD5C215B
:103970004DF2096001F066FD00214DF20A6001F090
:1039800061FD81214DF20B6001F05CFD00214DF2E3
:103990000C6001F057FDA6214DF20D6001F052FDC3
:1039A00000214DF20E6001F04DFDE5214DF20F605A
:1039B00001F048FD01214DF2106001F043FD13219B
:1039C0004DF2116001F03EFD01214DF2126001F057
:1039D00039FD54214DF2136001F034FD01214DF207
:1039E000146001F02FFD82214DF2156001F02AFDD7
:1039F00001214DF2166001F025FDCA214DF217603C
:103A000001F020FD02214DF2186001F01BFD0021A4
:103A10004DF2196001F016FD02214DF21A6001F01D
:103A200011FD01214DF21B6001F00CFD02214DF250
:103A30001C6001F007FD34214DF21D6001F002FD14
:103A400002214DF21E6001F0FDFC67214DF21F6066
:103A500001F0F8FC02214DF2206001F0F3FC84211A
:103A60004DF2216001F0EEFC02214DF2226001F0E6
:103A7000E9FCA4214DF2236001F0E4FC02214DF2A7
:103A8000246001F0DFFCB7214DF2256001F0DAFC83
:103A900002214DF2266001F0D5FCCF214DF22760C6
:103AA00001F0D0FC02214DF2286001F0CBFCDE21B8
:103AB0004DF2296001F0C6FC02214DF22A6001F0AE
:103AC000C1FCF2214DF22B6001F0BCFC02214DF251
:103AD0002C6001F0B7FCFE214DF22D6001F0B2FC2C
:103AE00003214DF22E6001F0ADFC10214DF22F604C
:103AF00001F0A8FC03214DF2306001F0A3FC33215A
:103B00004DF2316001F09EFC03214DF2326001F074
:103B100099FC6D214DF2336001F094FC55214FF476
:103B2000704001F08FFCAA214FF2010001F08AFCE5
:103B300052214FF2020001F085FC08214FF20300F0
:103B400001F080FC00214FF2040001F07BFCCC214D
:103B50004FF4314001F076FC00214BF2011001F0EE
:103B600071FC05214FF4364001F06CFC70214FF4DC
:103B7000374001F067FC70214BF2017001F062FCEC
:103B800001214FF4384001F05DFC03214BF60100A8
:103B900001F058FC03214BF6020001F053FC032115
:103BA0004BF6030001F04EFC02214FF43C4001F0C3
:103BB00049FC00214BF6014001F044FC00214BF68A
:103BC000024001F03FFCD0214FF4494001F03AFCA3
:103BD00002214CF6011001F035FC50214CF6021088
:103BE00001F030FC50214CF6031001F02BFC502169
:103BF0004CF6041001F026FC00214FF4545001F063
:103C000021FC55214FF4685001F01CFC4FF4885002
:103C100001F008FC782002F01FF84FF4245001F066
:103C200001FC01F05EB9FE48808849F225318842E6
:103C30007ED147F6F001E52001F004FC4FF48071DD
:103C4000012001F0FFFB4FF4E061022001F0FAFBDC
:103C500041F23001032001F0F5FB0021042001F0C6
:103C6000F1FB40F20221082001F0ECFB00210920C9
:103C700001F0E8FB00210A2001F0E4FB00210C2008
:103C800001F0E0FB00210D2001F0DCFB00210F2002
:103C900001F0D8FB0021102001F0D4FB07211120F6
:103CA00001F0D0FB0021122001F0CCFB00211320F9
:103CB00001F0C8FB0021072001F0C4FB41F2906134
:103CC000102001F0BFFB40F22721112001F0BAFBC8
:103CD0009D21122001F0B6FB4FF4C851132001F0D2
:103CE000B1FB2521292001F0ADFB0D212B2001F096
:103CF000A9FB0721302001F0A5FB40F20331312060
:103D000001F0A0FB0321322001F09CFB40F20621D0
:103D1000352001F097FB0821362001F093FB40F29B
:103D20000641372001F08EFB4FF44171382000E04E
:103D300057E001F087FB0721392001F083FB40F2B7
:103D400002613C2001F07EFB08213D2001F07AFB5E
:103D50000021502001F076FBEF21512001F072FB91
:103D60000021522001F06EFB40F23F11532001F080
:103D700069FB4FF42741602001F064FB01216120C1
:103D800001F060FB00216A2001F05CFB0021802033
:103D900001F058FB0021812001F054FB002182201A
:103DA00001F050FB0021832001F04CFB0021842016
:103DB00001F048FB0021852001F044FB10219020F8
:103DC00001F040FB4FF4C061922001F03BFB40F258
:103DD0003311072001F036FB2221002001F032FBD5
:103DE0001FE78F48808849F2283188427ED141F20E
:103DF0008F01EC2001F026FB41F23421EF2001F08D
:103E000021FB4FF48071012001F01CFB4FF4E061B5
:103E1000022001F017FB41F23001032001F012FBF8
:103E20000021042001F00EFB40F20221082001F0E5
:103E300009FB0021092001F005FB00210A2001F007
:103E400001FB01210C2001F0FDFA00210D2001F001
:103E5000F9FA00210F2001F0F5FA0021102001F0FD
:103E6000F1FA0721112001F0EDFA0021122001F0F2
:103E7000E9FA0021132001F0E5FA0121072001F001
:103E8000E1FA322001F0C8FE41F29041102001F029
:103E9000D9FA40F22721112001F0D4FA322001F0A2
:103EA000BBFE8A21122001F0CDFA322001F0B4FECF
:103EB0004FF4D051132001F0C5FA0621292001F05A
:103EC000C1FA0D212B2001F0BDFA322001F0A4FE31
:103ED0000021202001F0B6FA0021212001F0B2FAE1
:103EE000322001F099FE0021302000E074E001F062
:103EF000A9FA40F20461312001F0A4FA40F2053140
:103F0000322001F09FFA0021352001F09BFA40F6A3
:103F10000941362001F096FA4FF40171372001F083
:103F200091FA40F20131382001F08CFA40F2077129
:103F3000392001F087FA00213C2001F083FA40F695
:103F40000A213D2001F07EFA322001F065FE0021B9
:103F5000502001F077FAEF21512001F073FA00218F
:103F6000522001F06FFA40F23F11532001F06AFA3B
:103F70004FF42741602001F065FA0121612001F032
:103F800061FA00216A2001F05DFA0021802001F031
:103F900059FA0021812001F055FA0021822001F018
:103FA00051FA0021832001F04DFA0021842001F014
:103FB00049FA0021852001F045FA1021902001F0F6
:103FC00041FA4FF4C061922001F03CFA40F2331103
:103FD000072001F037FA24E61148808849F22031A1
:103FE00088427DD10021084601F02CFA4FF48071FF
:103FF000012001F027FA4FF4E061022001F022FADB
:1040000041F23001032001F01DFA0021042001F0EB
:1040100019FA40F20221082001F014FA002101E00F
:10402000F8010020092001F00DFA00210A2001F01A
:1040300009FA01210C2001F005FA00210D2001F000
:1040400001FA00210F2001F0FDF9322001F0E4FD1A
:1040500040F20111072001F0F5F9322001F0DCFDFA
:104060004FF48651102001F0EDF90721112001F0E5
:10407000E9F94FF48871122001F0E4F94FF430614E
:10408000132001F0DFF90021292001F0DBF944F2CF
:1040900010012B2001F0D6F90021502001F0D2F9B7
:1040A000EF21512001F0CEF90021522001F0CAF990
:1040B00040F23F11532001F0C5F94FF41C5160202C
:1040C00001F0C0F90121612001F0BCF900216A2052
:1040D00001F0B8F90021802001F0B4F9002100E0DE
:1040E00031E0812001F0AEF90021822001F0AAF92F
:1040F0000021832001F0A6F90021842001F0A2F91B
:104100000021852001F09EF91021902001F09AF9FC
:104110000021922001F096F90121932001F092F9FB
:104120004FF48871952001F08DF90021972001F05E
:1041300089F90021982001F085F940F273110720D8
:1041400001F080F96DE5FE48808849F231318842FE
:104150007DD141F21401E72001F074F94FF4807130
:10416000012001F06FF94FF40071022001F06AF9AB
:1041700041F23801032001F065F940F202210820E4
:1041800001F060F90021092001F05CF900210A200A
:1041900001F058F900210C2001F054F900210D2004
:1041A00001F050F900210F2001F04CF900211020FE
:1041B00001F048F90721112001F044F900211220F3
:1041C00001F040F90021132001F03CF9C82001F072
:1041D00023FD41F29061102001F034F940F22721D3
:1041E000112001F02FF9322001F016FD0C211220D0
:1041F00001F028F9322001F00FFD4FF40061132087
:1042000001F020F91121292001F01CF90B212B20AC
:1042100001F018F9322001F0FFFC0021202001F00C
:1042200011F940F23F11212001F00CF9002130205A
:1042300001F008F94FF48371312001F003F90021F6
:10424000322001F0FFF84FF40171352000E064E006
:1042500001F0F8F841F20A61362001F0F3F840F27B
:104260000771372001F0EEF84FF48371382001F028
:10427000E9F840F20771392001F0E4F840F2024118
:104280003C2001F0DFF840F60F413D2001F0DAF864
:104290000021502001F0D6F8EF21512001F0D2F892
:1042A0000021522001F0CEF840F23F11532001F0DE
:1042B000C9F84FF41C51602001F0C4F801216120BD
:1042C00001F0C0F800216A2001F0BCF80021802034
:1042D00001F0B8F80021812001F0B4F8002182201B
:1042E00001F0B0F80021832001F0ACF80021842017
:1042F00001F0A8F80021852001F0A4F810219020F9
:1043000001F0A0F84FF4C061922001F09BF840F258
:104310003311072001F096F883E48948808845F23C
:10432000084188427ED14FF48071012001F08AF863
:104330004FF4E061022001F085F841F230010320E2
:1043400001F080F80021042001F07CF840F2072100
:10435000082001F077F80021092001F073F800210E
:104360000A2001F06FF800210C2001F06BF8002109
:104370000D2001F067F800210F2001F063F81420F0
:1043800001F04AFC41F2B061102001F05BF801211C
:10439000112001F057F80121172001F053F84FF4D4
:1043A0009C71122001F04EF84FF40061132001F0CF
:1043B00049F80921292001F045F809212A2001F0B6
:1043C00041F80021A42001F03DF80021502001F027
:1043D00039F8EF21512001F035F80021522001F089
:1043E00031F840F23F11532001F02CF84FF41C51EA
:1043F000602001F027F80121612001F023F800215D
:104400006A2001F01FF80021802001F01BF8002134
:10441000812001F017F80021822001F013F800211B
:10442000832000E023E001F00DF80021842001F05A
:1044300009F80021852001F005F81321902001F0F2
:1044400001F80021922000F0FDFF0321932000F0ED
:10445000F9FF4FF48871952000F0F4FF40F27311DA
:10446000072000F0EFFF322001F0D6FBB8E434481B
:10447000808841F2055188427ED10021072000F05A
:10448000E1FF322001F0C8FB4FF48E71122000F0E2
:10449000D9FF0121A42000F0D5FF0F21082000F052
:1044A000D1FF08210A2000F0CDFF08210D2000F0E7
:1044B000C9FF40F20771302000F0C4FF072131200E
:1044C00000F0C0FF40F20361322000F0BBFF4FF468
:1044D000E061332000F0B6FF40F20221342000F00A
:1044E000B1FF0221352000F0ADFF41F60F713620FB
:1044F00000F0A8FF40F20771372000F0A3FF002171
:10450000382000F09FFF0021392000F09BFF40F28F
:1045100007713A2000F096FF00213B2000F092FF47
:1045200007213C2000F08EFF00213D2000F08AFF93
:10453000322001F071FB0121072000F083FF01E030
:10454000F80100200121172000F07CFF322001F04B
:1045500063FB4FF4BD51102000F074FF40F21721AF
:10456000112000F06FFF4FF48F71122000F06AFFEE
:104570004FF47061132000E097E000F063FF00212A
:104580002A2000F05FFF0A21292000F05BFF4FF492
:104590009F71122000F056FF0021502000F052FFC2
:1045A000EF21512000F04EFF0021522000F04AFF81
:1045B00040F23F11532000F045FF4FF41C516020A2
:1045C00000F040FF0121612000F03CFF00216A2043
:1045D00000F038FF0021802000F034FF002181200E
:1045E00000F030FF0021822000F02CFF002183200A
:1045F00000F028FF0021842000F024FF0021852006
:1046000000F020FF1321902000F01CFF4FF44071B8
:10461000922000F017FF0521932000F013FF0021E6
:10462000952000F00FFF0021972000F00BFF0021E4
:10463000982000F007FF4FF48071012000F002FF86
:104640004FF4E061022000F0FDFE41F2380103204A
:1046500000F0F8FE0021042000F0F4FE00210C2000
:1046600000F0F0FE00210F2000F0ECFE00212020E1
:1046700000F0E8FE0021212000F0E4FE21210720C7
:1046800000F0E0FE142001F0C7FA6121072000F0DD
:10469000D9FE142001F0C0FA40F27311072000F097
:1046A000D1FE142001F0B8FA95E4FE4880884BF260
:1046B000055188427ED10021084600F0C3FE00214A
:1046C000084600F0BFFE0021084600F0BBFE0021B6
:1046D000084600F0B7FE0121A42000F0B3FE14202C
:1046E00001F09AFA4FF41C51602000F0ABFE40F24A
:1046F0000221082000F0A6FE4FF40571302000F0E2
:10470000A1FE43F21571312000F09CFE40F20461DD
:10471000322000F097FE40F61661332000F092FE42
:1047200042F21121342000F08DFE4FF4A8513520C3
:1047300000F088FE48F20751362000F083FE41F277
:104740000741372000F07EFE41F20341382000F09F
:1047500079FE2021392000F075FE1A21902000F00A
:1047600071FE0021102000F06DFE0721112000F0E5
:1047700069FE0021122000F065FE0021132000F0E8
:1047800061FE142001F048FA4FF4E661102000F0B9
:1047900059FE40F23711112000F054FE142001F0B0
:1047A0003BFA4FF4DC71122000F04CFE142001F0B3
:1047B00033FA00E083E04FF47061132000F042FE12
:1047C00080212A2000F03EFE4821292000F03AFEF8
:1047D000142001F021FA4FF48071012000F032FE24
:1047E0004FF4E061022000F02DFE41F23801032079
:1047F00000F028FE40F20221082000F023FE0021F4
:104800000A2000F01FFE00210C2000F01BFE0021FA
:104810000D2000F017FE30210E2000F013FE0021C5
:10482000502000F00FFEEF21512000F00BFE002180
:10483000522000F007FE40F23F11532000F002FE2C
:104840004FF41C51602000F0FDFD0121612000F0BB
:10485000F9FD00216A2000F0F5FD1121902000F003
:10486000F1FD4FF4C061922000F0ECFD40F20241F6
:10487000932000F0E7FD0221942000F0E3FD1420D6
:1048800001F0CAF90121072000F0DCFD142001F03D
:10489000C3F96121072000F0D5FD40F27311072014
:1048A00000F0D0FD0021202000F0CCFD00212120CF
:1048B00000F0C8FD2221002000F0C4FD11E379487A
:1048C00080884CF2055188427ED10021084600F0D4
:1048D000B9FD0021084600F0B5FD142001F09CF957
:1048E0000021084600F0AEFD0021084600F0AAFDB8
:1048F0000021084600F0A6FD0021084600F0A2FDB8
:104900000121A42000F09EFD142001F085F94FF450
:104910001C51602000F096FD40F60601082000F0D2
:1049200091FD40F20371302000F08CFD0121312017
:1049300000F088FD0421322000F084FD4FF48171E5
:10494000332000F07FFD4FF44071342000F07AFDF9
:1049500040F20311352000F075FD1F21362000F0D4
:1049600071FD40F20371372000F06CFD0121382009
:1049700000F068FD0421392000F064FD152190202D
:1049800000F060FD4FF48261102000F05BFD40F20A
:104990004721112000F056FD4FF4DE71122000F087
:1049A00051FD4FF46061132000F04CFD782001F0C0
:1049B00033F94FF48071012000F044FD4FF4007191
:1049C000022000F03FFD00E050E041F23001032002
:1049D00000F038FD08210A2000F034FD00210C20F1
:1049E00000F030FD20210E2000F02CFD00210F20D2
:1049F00000F028FD0021202000F024FD00212120CE
:104A000000F020FD3D212A2000F01CFD142001F0C3
:104A100003F92D21292000F015FD0021502000F080
:104A200011FD4DF2EF01512000F00CFD002152204C
:104A300000F008FD40F23F11532000F003FD00217B
:104A4000612000F0FFFC00216A2000F0FBFC4FF425
:104A50004071922000F0F6FC0521932000F0F2FC5A
:104A60004FF48071072000F0EDFC3AE20D48808899
:104A700044F2315188427CD10121002000F0E2FC57
:104A80000A2001F0C9F841F22861102000F0DAFC98
:104A90000E21122000F0D6FC40F63921132000F040
:104AA000D1FC01E0F80100200A2001F0B5F8402116
:104AB000112000F0C7FC5021152000F0C3FC0A2093
:104AC00001F0AAF81E21122000F0BCFC0A2001F01F
:104AD000A3F84FF4B151102000F0B4FC42F6392194
:104AE000132000F0AFFC0A2001F096F84FF480711B
:104AF000012000F0A7FC4FF44071022000F0A2FC5E
:104B000041F23801032000F09DFC40F20221082010
:104B100000F098FC08210A2000F094FC00213020CD
:104B200000F090FC40F20241312000F08BFC4FF489
:104B30008371322000F086FC40F20351332000F0F4
:104B400081FC4FF48271342000F07CFC40F2013192
:104B5000352000F077FC40F20771362000F072FC3F
:104B600040F20531372000F06DFC4FF4027138201F
:104B700000E040E000F066FC40F60B71392000F0E8
:104B800061FC0221412000F05DFC4FF41C516020CB
:104B900000F058FC0121612000F054FC4FF4047136
:104BA000902000F04FFC4FF48571922000F04AFCF9
:104BB0000421932000F046FC4FF48071A02000F007
:104BC00041FC0121072000F03DFC2121072000F0DD
:104BD00039FC2321072000F035FC3321072000F0A9
:104BE00031FC40F23311072000F02CFC0021A02002
:104BF00000F028FC75E1C148808844F235518842B4
:104C00007ED13021152000F01DFC10219A2000F0EB
:104C100019FC2021112000F015FC43F2284110203E
:104C200000F010FC0221122000F00CFC41F23801CF
:104C3000132000F007FC282000F0EEFF12210846A8
:104C400000F000FC282000F0E7FF43F22041102094
:104C500000F0F8FB43F23801132000F0F3FB46208C
:104C600000F0DAFF0021302000F0ECFB40F20241BE
:104C7000312000F0E7FB40F20731322000F0E2FB88
:104C80004FF44171332000F0DDFB0421342000F0AB
:104C9000D9FB40F20141352000F0D4FB40F207710E
:104CA000362000F0CFFB40F20531372000F0CAFB80
:104CB0004FF4C261382000F0C5FB4FF4C2613920C7
:104CC00000F0C0FB4FF48071012000F0BBFB4FF4FB
:104CD0004071022000F0B6FB41F23001032000F0E9
:104CE000B1FB40F60801082000F0ACFB08210A20C7
:104CF00000F0A8FB4FF41C51602000F0A3FB00E083
:104D000031E00121612000F09DFB4FF49F71902064
:104D100000F098FB4FF48071922000F093FB4FF469
:104D20008071932000F08EFB4FF44051A02000F0E2
:104D300089FB1021A32000F085FB0121072000F052
:104D400081FB2121072000F07DFB2321072000F0BB
:104D500079FB3321072000F075FB40F23311072067
:104D600000F070FBBDE06548808841F66311884221
:104D7000F8D1E22000F056FB1D2000F04DFB022090
:104D800000F04AFB042000F047FB642000F064FFC1
:104D9000E02000F047FB012000F03EFB0A2000F07D
:104DA0003BFFE02000F03EFB032000F035FB0C2031
:104DB00000F032FF012000F035FB0A2000F02CFF4C
:104DC000E62000F02FFB2F2000F026FBFF2000F054
:104DD00023FBFF2000F020FBB02000F023FB20206D
:104DE00000F01AFB002000F017FB032000F014FB7A
:104DF00040F21F3000F010FB012000F00DFB40F2EC
:104E0000DF1000F009FB002000F006FBB42000F0EA
:104E100009FB042000F000FB40F21F4000F0FCFA08
:104E2000002000F0F9FA2E2000F0F6FA002000F041
:104E3000F3FA002000F0F0FA002000F0EDFA002074
:104E400000F0EAFAB62000F0EDFA022000F0E4FAF1
:104E50004FF4037000F0E0FA002000F0DDFA1720B4
:104E600000F0DAFA152000F0D7FA002000F0D4FAAA
:104E7000002000F0D1FAF02000F0D4FA032000F076
:104E8000CBFA292000F0CEFAD02000F0CBFA002097
:104E900000F0C2FABE2000F0C5FA052000F0BCFA0E
:104EA000FE2000F0B9FA012000F0B6FA002000F070
:104EB000B3FA002000F0B0FA002000F0ADFAB820FC
:104EC00000F0B0FA032000F0A7FA012000F0A4FAE5
:104ED000BA2000F0A7FA012000F09EFA642000F04A
:104EE00027F80020FCF774FB0120054908604FF605
:104EF000FF70FCF737FB1FB000BD0000F801002079
:104F00008081214208B5034800880090BDF8000068
:104F100008BD00000008006C10B50446204600F0F3
:104F200081FA052000F098FEFFF7ECFF10BD0000AD
:104F30002DE9F0470446BE2000F074FA052000F089
:104F40006BFA20460EF095FC07464FF066320C4B8C
:104F50000EF0A2FC05460EF05FFC1FFA80F94846F1
:104F600000F05AFA012000F057FAFF2000F054FA3E
:104F7000002000F051FA002000F04EFABDE8F08762
:104F80006666044070B5044600230026B748807961
:104F900001280BD1B548808846F60401884205D027
:104FA000B248808841F66311884208D1AF488079C1
:104FB000F0B9AE48808841F66311884218D1082CB8
:104FC00015D2DFE804F00406080A0C0E10120624BD
:104FD0000DE007240BE0042409E0052407E0012488
:104FE00005E0002403E0032401E0022400BF00BF29
:104FF0009E48808849F24131884217D09B4880887A
:1050000046F60401884211D09848808845F2103154
:1050100088420BD09548808845F21051884205D0CF
:105020009248808841F6631188427DD1082C1CD2B9
:10503000DFE804F00406090C0F12151800BF14E095
:1050400043F0800311E043F040030EE043F0C0035F
:105050000BE043F0200308E043F0600305E043F079
:10506000A00302E043F0E00300BF00BF7F48808858
:1050700045F21051884202D14FF4585600E03626CE
:105080007A48808845F2103188420DD07748808870
:1050900045F21051884207D07448808841F6631168
:1050A000884201D043F008037048808846F6040126
:1050B000884201D143F002031946304600F0C2F99C
:1050C0006A48808841F6631188421DD003F02000B1
:1050D00068B16648008865494988884214DA63489F
:1050E0000588408861490880084645800CE05F4893
:1050F00000885E494988884206DD5C48058840880A
:105100005A490880084645805848808845F2105121
:10511000884254D15549488900F084F9002000F0B4
:105120007BF95249498900E078E0491C88B200F0D7
:1051300079F9002000F070F94C494989891C88B23E
:1051400000F070F949490988491EC1F30F2000F0A9
:1051500063F946494989C91C88B200F063F943499B
:105160000978491EC8B200F057F94049888900F013
:1051700059F9002000F050F93C498989491C88B24E
:1051800000F050F9002000F047F938498989891C5E
:1051900088B200F047F935494988491EC1F30F200C
:1051A00000F03AF931498989C91C88B200F03AF90E
:1051B0002E498978491EC8B200F02EF955E02B49D6
:1051C000488900F02FF9002000F026F9002000F0B7
:1051D00023F926490988491EC1F30F2000F01CF964
:1051E00022490978491EC8B200F016F91F4988897A
:1051F00000F018F9002000F00FF9002000F00CF981
:105200001A494988491EC1F30F2000F005F91749D2
:105210008978491EC8B200F0FFF826E0082C1CD29D
:10522000DFE804F004070A0D0F12151843F03003ED
:1052300013E043F0100310E043F020030DE000BF43
:105240000BE043F0380308E043F0280305E043F0A7
:10525000180302E043F0080300BF00BF032643F435
:1052600080531946304600F0EDF870BDF80100207B
:1052700010B503460C466748808849F241318842A0
:1052800005D06448808845F21031884214D16149C4
:10529000488900F0C7F8181200F0BEF8D8B200F044
:1052A000BBF85C49888900F0BDF8201200F0B4F822
:1052B000E0B200F0B1F8ABE05648808846F6040151
:1052C00088421DD153488079012804D15148008873
:1052D000401EC01A83B24F49488900F0A3F8181243
:1052E00000F09AF8D8B200F097F84A49888900F09F
:1052F00099F8201200F090F8E0B200F08DF887E005
:105300004448808841F66311884247D141488079FA
:10531000A8B940480088401EC01A83B23D49488958
:1053200000F080F8002000F077F8002000F074F81A
:10533000181200F071F8D8B200F06EF816E0354996
:10534000488900F06FF8181200F066F8D8B200F043
:1053500063F830490988491EC1F30F2000F05CF85A
:105360002C490978491EC8B200F056F829498889A5
:1053700000F058F8201200F04FF8E0B200F04CF8BE
:1053800024494988491EC1F30F2000F045F82149FE
:105390008978491EC8B200F03FF839E01D4880887E
:1053A00045F21051884220D11A49488900F03AF854
:1053B000181200F031F817494989491C88B200F0E9
:1053C00031F8D8B200F028F81249888900F02AF89C
:1053D000201200F021F80F498989491C88B200F099
:1053E00021F8E0B200F018F812E00A4880790128AC
:1053F00004D108480088401EC01A83B20549488974
:10540000194600F01FF803498889214600F01AF870
:1054100010BD0000F801002001490880704700001D
:105420000008006C0149088070470000FE07006C0E
:10543000024800890249088070470000F8010020F6
:10544000FE07006C024A1080921C11807047000019
:10545000FE07006C08B50121482000F087F82020E5
:10546000ADF8000010208DF8030003208DF8020035
:1054700069460948FBF7C8FF20210748FCF74FF8A9
:105480002020ADF8000069460448FBF7BDFF20214D
:105490000248FCF744F808BD000C01400018014028
:1054A00000BFFEE77047000070B5002100230F2207
:1054B000C47804B3154C246804F4E064C4F5E064D3
:1054C000210AC1F10403CA40447804FA03F1847844
:1054D0001440214309010E4C0678A155047804F0CC
:1054E0001F050124AC4005786D11AD0005F1E025E4
:1054F000C5F8004109E0047804F01F050124AC4020
:10550000044D0678761145F8264070BD0CED00E09C
:1055100000E400E080E100E002490143024A11603A
:10552000704700000000FA050CED00E029B1064AC2
:1055300052690243044B5A6104E0034A52698243B0
:10554000014B5A61704700000010024029B1064A21
:10555000D2690243044BDA6104E0034AD269824310
:10556000014BDA61704700000010024029B1064A81
:1055700092690243044B9A6104E0034A92698243B0
:10558000014B9A61704700000010024030B50021C5
:105590000022002400232D4D6D6805F00C0121B17F
:1055A000042905D0082923D105E0294D056022E012
:1055B000274D05601FE0254D6D6805F47012234DE1
:1055C0006D6805F48034022505EB92421CB9214D2B
:1055D000554305600BE01D4D6D6805F400351DB1A8
:1055E0001C4D5543056002E0194D5543056002E02E
:1055F000174D056000BF00BF144D6D6805F0F00148
:105600000909154D6B5C0568DD4045600F4D6D68FF
:1056100005F4E061090A104D6B5C4568DD4085606A
:105620000A4D6D6805F46051C90A0B4D6B5C456805
:10563000DD40C560054D6D6805F44041890B074D9F
:105640006B5CC568B5FBF3F5056130BD0010024029
:1056500000127A0000093D004200002052000020A4
:1056600010B500F001F810BD0CB5002001900090BD
:105670003348006840F480303149086000BF30484A
:10568000006800F4003000900198401C01900098E0
:1056900018B90198B0F5A06FF1D12948006800F45D
:1056A000003010B10120009001E00020009000982F
:1056B000012843D12348006840F0100021490860C8
:1056C0000846006820F0030008600846006840F0C3
:1056D000020008601A484068194948600846406856
:1056E00048600846406840F480604860084640686A
:1056F00020F47C1048600846406840F4E810486098
:105700000846006840F08070086000BF0C480068E0
:1057100000F000700028F9D00948406820F003002C
:10572000074948600846406840F00200486000BFF2
:105730000348406800F00C000828F9D10CBD0000B7
:105740000010024000200240042808D14FF0E02160
:10575000096941F004014FF0E022116107E04FF0C8
:10576000E021096921F004014FF0E0221161704746
:1057700010B50DF0A9FD012801D00DF065F90DF06F
:10578000B3FD10BD10B51348006840F00100114989
:10579000086008464068104908400E4948600846BD
:1057A00000680E4908400B4908600846006820F46C
:1057B000802008600846406820F4FE0048604FF4EE
:1057C0001F008860FFF74CFF4FF00060044908603D
:1057D00010BD0000001002400000FFF8FFFFF6FEC1
:1057E00008ED00E010B50121094800F054F8012847
:1057F00008D1084802684068521C40F10000054981
:105800000A6048600121024800F036F810BD00002F
:1058100000040040280000207FB505460C46012109
:105820000220FFF793FEADF80850ADF804400020C9
:10583000ADF80A00ADF8060001A90E4800F046F8E0
:10584000012211460B4800F037F81D208DF80000AA
:1058500001208DF8010000208DF8020001208DF854
:1058600003006846FFF720FE0121024800F007F818
:105870007FBD000000040040CA430282704721B18E
:10588000028842F00102028004E002884FF6FE73B3
:105890001A400280704730B50246002000230024E1
:1058A000158A05EA0103958905EA010413B10CB1D3
:1058B000012000E0002030BD1AB183890B438381B1
:1058C00002E083898B4383817047000000220288B5
:1058D0001D4B98420ED01D4B98420BD0B0F1804F1B
:1058E00008D01B4B984205D01A4B984202D01A4B55
:1058F000984204D14FF68F731A404B881A43174BC6
:10590000984207D0164B984204D04FF6FF431A40F6
:10591000CB881A4302808B8883850B8803850A4BCA
:1059200098420BD0094B984208D00E4B984205D0B4
:105930000D4B984202D00D4B984201D10B7A038651
:105940000123838270470000002C01400034014095
:105950000004004000080040000C0040001000401F
:105960000014004000400140004401400048014054
:1059700010B540F225511D4800F04AF810B31B48FD
:1059800000F002F9C4B21A48008800F40040C8B917
:105990001748008800F4804060B10A2C03D0002032
:1059A0001349088020E01248008840F40040104964
:1059B000088019E00D2C06D10D48008840F4804085
:1059C0000B49088010E00A480088C0F30D0009491F
:1059D0000C5407480088401C054908800846008888
:1059E000C72801DD0020088010BD000000380140FC
:1059F000400000201802002021B1828942F40052A8
:105A0000828104E082894DF6FF731A4082817047DB
:105A100070B50246002400230025002040F66A16D7
:105A2000B14200D100BFC1F3421501F01F030126AE
:105A300006FA03F3012D02D19689334006E0022DC8
:105A400002D1168A334001E0968A33400C120126B7
:105A500006FA04F41688344013B10CB1012000E0BA
:105A6000002070BDF0B5034600240026002500206C
:105A700040F66A17B94200D100BF1846C1F342147C
:105A800001F01F06012707FA06F5012C01D10C30A1
:105A900004E0022C01D1103000E014301AB1076884
:105AA0002F43076002E00768AF430760F0BD0000C6
:105AB0002DE9F04786B005460E460024A24600BFF9
:105AC000A1460027B08900B100BF2F462C8A4CF6B2
:105AD000FF700440F08804432C82AC894EF6F3102A
